{
  "contractName": "DecentralBank",
  "abi": [
    {
      "inputs": [
        {
          "internalType": "contract RWD",
          "name": "_rwd",
          "type": "address"
        },
        {
          "internalType": "contract Tether",
          "name": "_tether",
          "type": "address"
        }
      ],
      "stateMutability": "nonpayable",
      "type": "constructor"
    },
    {
      "inputs": [
        {
          "internalType": "address",
          "name": "",
          "type": "address"
        }
      ],
      "name": "hasStaked",
      "outputs": [
        {
          "internalType": "bool",
          "name": "",
          "type": "bool"
        }
      ],
      "stateMutability": "view",
      "type": "function",
      "constant": true
    },
    {
      "inputs": [
        {
          "internalType": "address",
          "name": "",
          "type": "address"
        }
      ],
      "name": "isStaked",
      "outputs": [
        {
          "internalType": "bool",
          "name": "",
          "type": "bool"
        }
      ],
      "stateMutability": "view",
      "type": "function",
      "constant": true
    },
    {
      "inputs": [],
      "name": "name",
      "outputs": [
        {
          "internalType": "string",
          "name": "",
          "type": "string"
        }
      ],
      "stateMutability": "view",
      "type": "function",
      "constant": true
    },
    {
      "inputs": [],
      "name": "owner",
      "outputs": [
        {
          "internalType": "address",
          "name": "",
          "type": "address"
        }
      ],
      "stateMutability": "view",
      "type": "function",
      "constant": true
    },
    {
      "inputs": [],
      "name": "rwd",
      "outputs": [
        {
          "internalType": "contract RWD",
          "name": "",
          "type": "address"
        }
      ],
      "stateMutability": "view",
      "type": "function",
      "constant": true
    },
    {
      "inputs": [
        {
          "internalType": "uint256",
          "name": "",
          "type": "uint256"
        }
      ],
      "name": "stakers",
      "outputs": [
        {
          "internalType": "address",
          "name": "",
          "type": "address"
        }
      ],
      "stateMutability": "view",
      "type": "function",
      "constant": true
    },
    {
      "inputs": [
        {
          "internalType": "address",
          "name": "",
          "type": "address"
        }
      ],
      "name": "stakingBalance",
      "outputs": [
        {
          "internalType": "uint256",
          "name": "",
          "type": "uint256"
        }
      ],
      "stateMutability": "view",
      "type": "function",
      "constant": true
    },
    {
      "inputs": [],
      "name": "tether",
      "outputs": [
        {
          "internalType": "contract Tether",
          "name": "",
          "type": "address"
        }
      ],
      "stateMutability": "view",
      "type": "function",
      "constant": true
    },
    {
      "inputs": [
        {
          "internalType": "uint256",
          "name": "_amount",
          "type": "uint256"
        }
      ],
      "name": "depositTokens",
      "outputs": [],
      "stateMutability": "nonpayable",
      "type": "function"
    },
    {
      "inputs": [],
      "name": "unstakeTokens",
      "outputs": [],
      "stateMutability": "nonpayable",
      "type": "function"
    },
    {
      "inputs": [],
      "name": "issueTokens",
      "outputs": [],
      "stateMutability": "nonpayable",
      "type": "function"
    }
  ],
  "bytecode": "0x60806040526040518060400160405280600e81526020017f446563656e7472616c2042616e6b000000000000000000000000000000000000815250600090805190602001906200005192919062000150565b503480156200005f57600080fd5b506040516200141e3803806200141e8339818101604052810190620000859190620002c3565b81600360006101000a81548173ffffffffffffffffffffffffffffffffffffffff021916908373ffffffffffffffffffffffffffffffffffffffff16021790555080600260006101000a81548173ffffffffffffffffffffffffffffffffffffffff021916908373ffffffffffffffffffffffffffffffffffffffff16021790555033600160006101000a81548173ffffffffffffffffffffffffffffffffffffffff021916908373ffffffffffffffffffffffffffffffffffffffff16021790555050506200036f565b8280546200015e9062000339565b90600052602060002090601f016020900481019282620001825760008555620001ce565b82601f106200019d57805160ff1916838001178555620001ce565b82800160010185558215620001ce579182015b82811115620001cd578251825591602001919060010190620001b0565b5b509050620001dd9190620001e1565b5090565b5b80821115620001fc576000816000905550600101620001e2565b5090565b600080fd5b600073ffffffffffffffffffffffffffffffffffffffff82169050919050565b6000620002328262000205565b9050919050565b6000620002468262000225565b9050919050565b620002588162000239565b81146200026457600080fd5b50565b60008151905062000278816200024d565b92915050565b60006200028b8262000225565b9050919050565b6200029d816200027e565b8114620002a957600080fd5b50565b600081519050620002bd8162000292565b92915050565b60008060408385031215620002dd57620002dc62000200565b5b6000620002ed8582860162000267565b92505060206200030085828601620002ac565b9150509250929050565b7f4e487b7100000000000000000000000000000000000000000000000000000000600052602260045260246000fd5b600060028204905060018216806200035257607f821691505b602082108114156200036957620003686200030a565b5b50919050565b61109f806200037f6000396000f3fe608060405234801561001057600080fd5b50600436106100a95760003560e01c80636177fd18116100715780636177fd18146101425780638da5cb5b14610172578063a5ce413b14610190578063c93c8f341461019a578063dd49756e146101ca578063fd5e6dd1146101e6576100a9565b806306fdde03146100ae5780631a8972d3146100cc57806345bc78ab146100ea5780635efc071a1461011a57806360ab585214610138575b600080fd5b6100b6610216565b6040516100c39190610a9f565b60405180910390f35b6100d46102a4565b6040516100e19190610b40565b60405180910390f35b61010460048036038101906100ff9190610b9e565b6102ca565b6040516101119190610be4565b60405180910390f35b6101226102e2565b60405161012f9190610c20565b60405180910390f35b610140610308565b005b61015c60048036038101906101579190610b9e565b61050d565b6040516101699190610c56565b60405180910390f35b61017a61052d565b6040516101879190610c80565b60405180910390f35b610198610553565b005b6101b460048036038101906101af9190610b9e565b61072a565b6040516101c19190610c56565b60405180910390f35b6101e460048036038101906101df9190610cc7565b61074a565b005b61020060048036038101906101fb9190610cc7565b6109c7565b60405161020d9190610c80565b60405180910390f35b6000805461022390610d23565b80601f016020809104026020016040519081016040528092919081815260200182805461024f90610d23565b801561029c5780601f106102715761010080835404028352916020019161029c565b820191906000526020600020905b81548152906001019060200180831161027f57829003601f168201915b505050505081565b600360009054906101000a900473ffffffffffffffffffffffffffffffffffffffff1681565b60056020528060005260406000206000915090505481565b600260009054906101000a900473ffffffffffffffffffffffffffffffffffffffff1681565b600160009054906101000a900473ffffffffffffffffffffffffffffffffffffffff1673ffffffffffffffffffffffffffffffffffffffff163373ffffffffffffffffffffffffffffffffffffffff1614610398576040517f08c379a000000000000000000000000000000000000000000000000000000000815260040161038f90610da1565b60405180910390fd5b60005b60048054905081101561050a576000600482815481106103be576103bd610dc1565b5b9060005260206000200160009054906101000a900473ffffffffffffffffffffffffffffffffffffffff16905060006009600560008473ffffffffffffffffffffffffffffffffffffffff1673ffffffffffffffffffffffffffffffffffffffff168152602001908152602001600020546104399190610e4e565b905060008111156104f557600360009054906101000a900473ffffffffffffffffffffffffffffffffffffffff1673ffffffffffffffffffffffffffffffffffffffff1663a9059cbb83836040518363ffffffff1660e01b81526004016104a1929190610e7f565b602060405180830381600087803b1580156104bb57600080fd5b505af11580156104cf573d6000803e3d6000fd5b505050506040513d601f19601f820116820180604052508101906104f39190610ed4565b505b5050808061050290610f01565b91505061039b565b50565b60076020528060005260406000206000915054906101000a900460ff1681565b600160009054906101000a900473ffffffffffffffffffffffffffffffffffffffff1681565b6000600560003373ffffffffffffffffffffffffffffffffffffffff1673ffffffffffffffffffffffffffffffffffffffff168152602001908152602001600020549050600081116105da576040517f08c379a00000000000000000000000000000000000000000000000000000000081526004016105d190610fbc565b60405180910390fd5b6000600560003373ffffffffffffffffffffffffffffffffffffffff1673ffffffffffffffffffffffffffffffffffffffff16815260200190815260200160002081905550600260009054906101000a900473ffffffffffffffffffffffffffffffffffffffff1673ffffffffffffffffffffffffffffffffffffffff1663a9059cbb33836040518363ffffffff1660e01b815260040161067c929190610e7f565b602060405180830381600087803b15801561069657600080fd5b505af11580156106aa573d6000803e3d6000fd5b505050506040513d601f19601f820116820180604052508101906106ce9190610ed4565b506000600760003373ffffffffffffffffffffffffffffffffffffffff1673ffffffffffffffffffffffffffffffffffffffff16815260200190815260200160002060006101000a81548160ff02191690831515021790555050565b60066020528060005260406000206000915054906101000a900460ff1681565b6000811161075757600080fd5b600260009054906101000a900473ffffffffffffffffffffffffffffffffffffffff1673ffffffffffffffffffffffffffffffffffffffff166323b872dd3330846040518463ffffffff1660e01b81526004016107b693929190610fdc565b602060405180830381600087803b1580156107d057600080fd5b505af11580156107e4573d6000803e3d6000fd5b505050506040513d601f19601f820116820180604052508101906108089190610ed4565b5080600560003373ffffffffffffffffffffffffffffffffffffffff1673ffffffffffffffffffffffffffffffffffffffff16815260200190815260200160002060008282546108589190611013565b92505081905550600660003373ffffffffffffffffffffffffffffffffffffffff1673ffffffffffffffffffffffffffffffffffffffff16815260200190815260200160002060009054906101000a900460ff16610914576004339080600181540180825580915050600190039060005260206000200160009091909190916101000a81548173ffffffffffffffffffffffffffffffffffffffff021916908373ffffffffffffffffffffffffffffffffffffffff1602179055505b6001600760003373ffffffffffffffffffffffffffffffffffffffff1673ffffffffffffffffffffffffffffffffffffffff16815260200190815260200160002060006101000a81548160ff0219169083151502179055506001600660003373ffffffffffffffffffffffffffffffffffffffff1673ffffffffffffffffffffffffffffffffffffffff16815260200190815260200160002060006101000a81548160ff02191690831515021790555050565b600481815481106109d757600080fd5b906000526020600020016000915054906101000a900473ffffffffffffffffffffffffffffffffffffffff1681565b600081519050919050565b600082825260208201905092915050565b60005b83811015610a40578082015181840152602081019050610a25565b83811115610a4f576000848401525b50505050565b6000601f19601f8301169050919050565b6000610a7182610a06565b610a7b8185610a11565b9350610a8b818560208601610a22565b610a9481610a55565b840191505092915050565b60006020820190508181036000830152610ab98184610a66565b905092915050565b600073ffffffffffffffffffffffffffffffffffffffff82169050919050565b6000819050919050565b6000610b06610b01610afc84610ac1565b610ae1565b610ac1565b9050919050565b6000610b1882610aeb565b9050919050565b6000610b2a82610b0d565b9050919050565b610b3a81610b1f565b82525050565b6000602082019050610b556000830184610b31565b92915050565b600080fd5b6000610b6b82610ac1565b9050919050565b610b7b81610b60565b8114610b8657600080fd5b50565b600081359050610b9881610b72565b92915050565b600060208284031215610bb457610bb3610b5b565b5b6000610bc284828501610b89565b91505092915050565b6000819050919050565b610bde81610bcb565b82525050565b6000602082019050610bf96000830184610bd5565b92915050565b6000610c0a82610b0d565b9050919050565b610c1a81610bff565b82525050565b6000602082019050610c356000830184610c11565b92915050565b60008115159050919050565b610c5081610c3b565b82525050565b6000602082019050610c6b6000830184610c47565b92915050565b610c7a81610b60565b82525050565b6000602082019050610c956000830184610c71565b92915050565b610ca481610bcb565b8114610caf57600080fd5b50565b600081359050610cc181610c9b565b92915050565b600060208284031215610cdd57610cdc610b5b565b5b6000610ceb84828501610cb2565b91505092915050565b7f4e487b7100000000000000000000000000000000000000000000000000000000600052602260045260246000fd5b60006002820490506001821680610d3b57607f821691505b60208210811415610d4f57610d4e610cf4565b5b50919050565b7f43616c6c6572206d75737420626520746865206f776e65720000000000000000600082015250565b6000610d8b601883610a11565b9150610d9682610d55565b602082019050919050565b60006020820190508181036000830152610dba81610d7e565b9050919050565b7f4e487b7100000000000000000000000000000000000000000000000000000000600052603260045260246000fd5b7f4e487b7100000000000000000000000000000000000000000000000000000000600052601260045260246000fd5b7f4e487b7100000000000000000000000000000000000000000000000000000000600052601160045260246000fd5b6000610e5982610bcb565b9150610e6483610bcb565b925082610e7457610e73610df0565b5b828204905092915050565b6000604082019050610e946000830185610c71565b610ea16020830184610bd5565b9392505050565b610eb181610c3b565b8114610ebc57600080fd5b50565b600081519050610ece81610ea8565b92915050565b600060208284031215610eea57610ee9610b5b565b5b6000610ef884828501610ebf565b91505092915050565b6000610f0c82610bcb565b91507fffffffffffffffffffffffffffffffffffffffffffffffffffffffffffffffff821415610f3f57610f3e610e1f565b5b600182019050919050565b7f7374616b696e672062616c616e63652063616e2774206265206c65737320746860008201527f616e207a65726f00000000000000000000000000000000000000000000000000602082015250565b6000610fa6602783610a11565b9150610fb182610f4a565b604082019050919050565b60006020820190508181036000830152610fd581610f99565b9050919050565b6000606082019050610ff16000830186610c71565b610ffe6020830185610c71565b61100b6040830184610bd5565b949350505050565b600061101e82610bcb565b915061102983610bcb565b9250827fffffffffffffffffffffffffffffffffffffffffffffffffffffffffffffffff0382111561105e5761105d610e1f565b5b82820190509291505056fea2646970667358221220db111225cf5fe9b101be03bf2b4e5d5e9a929db3b0fa64a8c47f1eb0a4db389964736f6c63430008090033",
  "immutableReferences": {},
  "source": "// SPDX-License-Identifier: MIT\r\n\r\npragma solidity ^0.8.0;\r\n\r\nimport \"./RWD.sol\";\r\nimport \"./Tether.sol\";\r\n\r\ncontract DecentralBank {\r\n    string public name = \"Decentral Bank\";\r\n    address public owner;\r\n    Tether public tether;\r\n    RWD public rwd;\r\n\r\n    address[] public stakers;\r\n\r\n    mapping(address => uint256) public stakingBalance;\r\n    mapping(address => bool) public hasStaked;\r\n    mapping(address => bool) public isStaked;\r\n\r\n    constructor(RWD _rwd, Tether _tether) {\r\n        rwd = _rwd;\r\n        tether = _tether;\r\n        owner = msg.sender;\r\n    }\r\n\r\n    // Staking function\r\n    function depositTokens(uint256 _amount) public {\r\n        require(_amount > 0);\r\n\r\n        // Transfer tether tokens to this contract address for staking\r\n        tether.transferFrom(msg.sender, address(this), _amount);\r\n\r\n        // Update staking balance\r\n        stakingBalance[msg.sender] += _amount; \r\n\r\n        if(!hasStaked[msg.sender]) {\r\n            stakers.push(msg.sender);\r\n        }\r\n\r\n        // Update staking balance\r\n        isStaked[msg.sender] = true;\r\n        hasStaked[msg.sender] = true;\r\n    }\r\n\r\n    // Unstake function\r\n    function unstakeTokens() public {\r\n        uint256 balance = stakingBalance[msg.sender];\r\n        require(balance > 0, \"staking balance can't be less than zero\");\r\n\r\n        // transfer tokens to the specified contract address from the bank\r\n        stakingBalance[msg.sender] = 0;\r\n        tether.transfer(msg.sender, balance);\r\n        // update staking status\r\n        isStaked[msg.sender] = false;\r\n    }\r\n\r\n    //  Issue rewards\r\n    function issueTokens () public {\r\n        require(msg.sender == owner, \"Caller must be the owner\");\r\n\r\n        for(uint256 i = 0; i < stakers.length; i++) {\r\n            address recipient = stakers[i];\r\n            uint256 balance = stakingBalance[recipient] / 9;\r\n            if(balance > 0) {\r\n                rwd.transfer(recipient, balance);\r\n            }\r\n        }\r\n    }\r\n}\r\n",
  "sourcePath": "X:\\Travail\\Blockchain\\Projets\\defi-staking-app\\src\\contracts\\DecentralBank.sol",
  "compiler": {
    "name": "solc",
    "version": "0.8.9+commit.e5eed63a.Emscripten.clang"
  },
  "schemaVersion": "3.4.3",
  "updatedAt": "2021-11-04T10:34:18.374Z",
  "networkType": "ethereum",
  "devdoc": {
    "kind": "dev",
    "methods": {},
    "version": 1
  },
  "userdoc": {
    "kind": "user",
    "methods": {},
    "version": 1
  }
}